:020000040800F2
:10000000600F0020010100087B2B0008BB2A0008BC
:10001000792B0008BD120008F5350008000000002B
:100020000000000000000000000000001133000884
:100030000313000800000000D93100081333000842
:100040001B0100081B0100081B0100081B01000820
:100050001B0100081B0100081B0100081B01000810
:100060001B0100081B0100081B0100081B01000800
:100070001B0100081B0100081B010008C112000839
:10008000CD1200081B0100081B0100081B0100081D
:100090001B0100081B0100081B0100081B010008D0
:1000A0001B0100081B0100081B0100081B010008C0
:1000B0001B0100081B0100081B0100081B010008B0
:1000C0001B0100081B0100081B0100081B010008A0
:1000D0001B0100081B0100081B0100081B01000890
:1000E0001B0100081B0100081B010008DFF80CD0F1
:1000F00000F022FF004800472D3F0008600F00205D
:100100000648804706480047FEE7FEE7FEE7FEE7B1
:10011000FEE7FEE7FEE7FEE7FEE7FEE765330008E1
:10012000ED000008202A04DB203A21FA02F0002129
:10013000704721FA02F3D040C2F1200291400843F7
:100140001946704740EA01039B0703D009E008C93C
:10015000121F08C0042AFAD203E011F8013B00F88C
:10016000013B521EF9D27047D2B201E000F8012BD8
:10017000491EFBD270470022F6E710B513460A4627
:1001800004461946FFF7F0FF204610BD30B505467E
:100190002A460B4612F8010B13F8014B08B1A04296
:1001A000F8D01CB1002802D06D1CF1E7284630BD04
:1001B000421C10F8011B0029FBD1801A704703462E
:1001C00011F8012B00F8012B002AF9D118467047CD
:1001D0000FB400B58DB010A909900B9000914FF0AD
:1001E000FF300A9000200C900548069005480790C3
:1001F0006A4609A80F9900F083FD0DB05DF814FB65
:100200001D0D00083B0D00082DE9FF5F1D464FF056
:10021000FF3BD5E9014691465F464FF00008A969CA
:100220007F1C01988847296A824688470028F6D1B2
:10023000BAF1FF3F0CD024F4C064002E19DD600633
:1002400014D5BAF12B0F09D0BAF12D0F0ED103E05E
:10025000584604B0BDE8F09F44F48064A9697F1C4F
:1002600001988847761E8246002E02DDBAF1300FD3
:1002700003D0B9F1000F26D032E0A969761E44F40C
:1002800000747F1C019888478246002E05DDBAF174
:10029000780F06D0BAF1580F03D0B9F1000F10D083
:1002A0001EE0B9F1000F02D0B9F1100F18D1A96901
:1002B000761E24F400747F1C019888478246102023
:1002C00002E0082000E00A20814609E008FB090856
:1002D000A969761E44F400747F1C01988847824601
:1002E000002E05DD4946504600F0F5FC0028EDDA09
:1002F000E96901988847A00502D46FF00100A8E7DA
:10030000E00725D1600613D5600502D5C8F10000CD
:1003100000E0404629680A1D2A600968220501D5C7
:10032000087015E0220701D5088011E008600FE091
:100330002868011D29600068210502D580F8008029
:1003400006E0210702D5A0F8008001E0C0F8008097
:1003500038467EE72DE9FF4F087883B09946FF289D
:1003600005D0491C2D2804D00024002008E00020DE
:100370000BE00124F9E700EB800003EB4000491C8F
:100380000B78FF2BF7D104B140420023029314787D
:1003900019461D462D2C01D02B2C04D1521C2D2C7E
:1003A00013D000240294AA461478FF2C0FD00A25FB
:1003B000A3FB057801FB05814FF0000C03FB0C113A
:1003C000521CE3194AEB0101EEE70124EAE78144FC
:1003D00053EA010002D019F5C87F06DA039800211C
:1003E000C0E9001107B0BDE8F08F0025AE4E2F46E2
:1003F000DFF8B882184600F063FDCDE90001B9F1DD
:10040000000002DAC9F1000400E004460023A74A14
:100410001AEB030B42EB045A12E0E00707D02A461E
:1004200033463846414600F0B4FA074688462A4625
:1004300033461046194600F0ACFA05460E466410E5
:10044000002CEAD1DDE90001B9F1000F5A4653460C
:1004500006DA00F010FB3A46434600F00CFB05E0DC
:1004600000F097FA3A46434600F093FA029A0AB12E
:1004700081F00041039AC2E90001B3E72DE9FF4F83
:100480001F468DB0D7E901464FF0FF382E20454674
:100490004FF000090B90B9696D1C0E988847396AB6
:1004A000824688470028F6D1BAF1FF3F0AD024F4EB
:1004B000D064002E11DDBAF12B0F08D0BAF12D0F48
:1004C0000BD102E0404611B08DE744F48064B96975
:1004D0006D1C0E9888478246761E6946600501D5D8
:1004E0002D2000E02B208DF8000001F1010B0DF113
:1004F000200809E0B9696D1C0E98884782460F985C
:1005000044F40074761E0560002E02DDBAF1300F4F
:10051000F0D00B998A453ED144F0800406E00F9953
:10052000681CA9F1010944F400740860B9696D1CE4
:10053000761E0E98884782463028F0D02BE00B9923
:100540008A4505D1200603D444F08004761E18E0C5
:10055000504603F047F908B30DF11301761E44F439
:1005600000748B4508D2AAF130000BF8010B20066D
:1005700007D5A9F1010003E0200602D409F101002A
:100580008146A00502D50F99681C0860B9696D1CE9
:100590000E9888478246002ED1DC53E0002E51DDB4
:1005A000BAF1650F02D0BAF1450F4BD1A00549D57C
:1005B000B9696D1C24F44074761E0E9888478246F3
:1005C000002E0CDD2B2804D0BAF12D0F07D144F4F6
:1005D0008074B9696D1C0E9888478246761EE005C6
:1005E00001D52D2100E02B2108F8011BCDF82C802E
:1005F00021E00DF12901761E44F4007488450CD2E7
:10060000AAF1300010F0FF0088F8000002D10B9929
:10061000884509D908F1010806E0E00501D524481C
:1006200001E042F20F708146B9696D1C0E9888474F
:1006300082460F980560002E04DD504603F0D2F884
:100640000028D6D1F9690E988847FF208BF8000062
:1006500088F800000020069007904B466A4608A9DB
:1006600006A8FFF777FEA00502D46FF001002AE785
:1006700014F0240F0AD0E00714D1DDE9061238681F
:10068000031D3B600068C0E900120BE0DDE90601D4
:1006900000F09DFA0146E00704D13868021D3A6077
:1006A0000068016028460EE7000014400000F03F9B
:1006B000F1D8FFFFF0B480EA0102D40F4200B2EBA0
:1006C000410F02D20246084611464A0042D0C30DED
:1006D000DDB2C1F3C752AD1A202D35DAC1F31601D0
:1006E00041F4000204B15242C5F1200602FA06F1BB
:1006F0002A411044B3EBD05F23D0C4B1012DA0EB4D
:10070000C35009DCF0BC4FF0004202EAC352DBB236
:1007100000F5000000F02BBB400000F1807000EB02
:10072000C350A0F1807040EAD170490009E0490847
:1007300041EAC071A0EBC35000F50000400800EB97
:10074000C350F0BC00F00ABB6142012202EB410140
:10075000001BF6E7F0BC704781F00041AAE780F08B
:100760000040A7E780EA010210B502F00043400014
:1007700022D04A001FD0010E01EB1261C0F35600D7
:10078000C2F3560240F4000042F40002A0FB022033
:1007900000047F39140400D0401C50EA124001D4F8
:1007A0004000491EC2B20C0604EBD010401C4008A9
:1007B000802A02D003E0002010BD20F001000029B3
:1007C00000DA0020184310BD30B480EA010202F0C4
:1007D000004530F0004221F0004013D090B1C30D2D
:1007E000D40DC2F31601C0F31600E41A41F400015F
:1007F00040F400027D34914201D3641C00E04900C2
:10080000002C02DA30BC002070474FF400000023B7
:10081000914201D3891A034340084FEA4101F7D1BD
:1008200051B1914202D14FF0004105E002D24FF0A8
:10083000010101E06FF0010103EBC450284430BC1A
:1008400000F08CBA2DE9FE4F804681EA0300C00F0C
:100850000C46009021F0004123F00045B8EB020067
:10086000A94105D24046214690461C460B46024609
:1008700023F00040104347D0270DC7F30A00C3F30D
:100880000A510290401A019040286BDAC3F313001A
:1008900040F4801B0098924620B10023D2EB030A5B
:1008A00063EB0B0B01985946C0F14002504600F033
:1008B000F1F906460D4650465946019A00F0F9F9FD
:1008C00010EB08006141002487EA115284EAE773C3
:1008D0001A4340D0009A62B3019A012A4FEA0752A4
:1008E00015DC001B61EB02014FF0004202EA0752E7
:1008F000CDE90042001C41F5801132462B4600F044
:1009000091FA03B0BDE8F08F40462146F9E7001B9D
:1009100061EB0201001C41F5801300185B412018B7
:10092000A2F5001747EB030140EAD570B6196D41F7
:1009300011E06D084FEA360645EAC0754FEA0752E6
:10094000001B61EB0201001C41F5801149084FEAD0
:1009500030000019514132462B4603B0BDE8F04F3C
:1009600000F051BA0098012240000023D0EB0202AF
:1009700063EBE073009821464FEAE074B8EB0000A7
:1009800061EB0401E9E783F000435BE781F000419C
:1009900058E72DE9FE4F81EA030404F0004421F0FA
:1009A000004100944FF0000B23F0004350EA010493
:1009B0005ED052EA03045BD0C3F30A54C1F30A5574
:1009C0002C44A4F2F3340194A0FB0254C1F31301AC
:1009D00041F48011C3F3130343F4801301FB024479
:1009E00000FB034E840A970A44EA815447EA83577E
:1009F000A4FB076802958D0A05FB07854FEA932C37
:100A000004FB0C542705029D4FEA065847EA1637A7
:100A1000B5EB08056EEB070C870E920E47EA8117BF
:100A200042EA8312A7FB0201B6EB0B0164EB000460
:100A30002B0D43EA0C335E1844EB1C50DA4651464A
:100A4000E7FB0201C5F313044FEA0B3343EA1453E7
:100A50004FEA0432019C43EA0603A4F10C04029419
:100A6000009CCDE900B400F0DDF903B0BDE8F08FE3
:100A700000200146F9E72DE9F04D81EA030404F076
:100A8000004B21F0004514464FF0000A23F00041CE
:100A900050EA050220D054EA01021DD0C5F30A57DE
:100AA0000246C5F31303C1F31300C1F30A5640F421
:100AB000801543F48013A7EB0608101BD64608F2F6
:100AC000FD3873EB050002D308F1010801E092182C
:100AD0005B41B8F1000F03DA00200146BDE8F08D5C
:100AE00000204FF48011064684460EE0171B73EB7E
:100AF000050705D3121B63EB050306434CEA010C03
:100B000049084FEA300092185B4150EA0107EDD1E5
:100B100052EA030012D082EA040083EA0501084386
:100B200005D0101BAB4106D20122002306E00022B3
:100B30004FF0004302E06FF0010253101AEB060081
:100B40004CEB085110EB0A0041EB0B01BDE8F04DF6
:100B500000F059B90EB5C10F80EAE0700844CA0729
:100B6000002140F233438DE80E000A460B4600F0A8
:100B700059F903B000BD00F0004220F00040C10D63
:100B8000C0F3160040F400007F2901DA002070470E
:100B9000962903DCC1F19601C84001E096398840EE
:100BA000002AF4D04042704700F0004230F000408C
:100BB0000AD0C10D01F56071C0F3160042EA01517F
:100BC000C20840071143704700200146704701F0FA
:100BD000004330B421F0004150EA010206D00A0D72
:100BE000A2F56072C1F31301002A02DC30BC0020C0
:100BF0007047440F44EAC104C100E01830BC00EB68
:100C0000C25000F0ABB830B50B46014600202022A0
:100C1000012409E021FA02F59D4205D303FA02F509
:100C2000491B04FA02F52844151EA2F10102F1DC69
:100C300030BD2DE9F05F0546002092469B46884670
:100C40000646814640241BE0284641464746224648
:100C5000FFF768FA53465A46C01A914110D311461D
:100C60001846224600F016F82D1A67EB01084F4689
:100C700022460120002100F00DF817EB00094E413B
:100C8000201EA4F10104DFDC484631462A464346D3
:100C9000BDE8F09F202A04DB203A00FA02F1002090
:100CA00070479140C2F1200320FA03F319439040AA
:100CB0007047202A06DBCB17203A41FA02F043EABC
:100CC000E07306E041FA02F3D040C2F12002914005
:100CD0000843194670473A2800D2303820F02002E5
:100CE000412A01D3A2F13700884201D34FF0FF30EF
:100CF000704700000268114413780160184670477D
:100D0000D160044951610449116200211161114609
:100D100000F02AB9F50C00085D0F0008426842B1E6
:100D2000016811F8013B23B1521EC0E900121846B8
:100D300070470121C160881E704742685AB1C3687C
:100D4000016843B983688B4205D0491E521CC0E933
:100D50000012002070474FF0FF3070470029A8BFF5
:100D60007047401C490008BF20F00100704710B4D4
:100D7000B0FA80FC00FA0CF050EA010404BF10BC89
:100D8000704749B1CCF1200421FA04F411FA0CF1B6
:100D900018BF012121430843A3EB0C01CB1D4FEAEF
:100DA00000614FEA102042BF002010BC704700EBEA
:100DB000C35010440029A4BF10BC7047401C490018
:100DC00008BF20F0010010BC704710B541000CD0E6
:100DD000C0F3C751962908DC7E2909DC06DB4102F5
:100DE00004D000F0004040F07E5010BD002010BD47
:100DF000C1F19604C4F1200100FA01F1E040FFF7CF
:100E0000ADFFA04010BD10B5141E73F1000408DA48
:100E1000401C41F1000192185B411A4301D120F0BE
:100E2000010010BD2DE9F04D92469B4611B1B1FA7B
:100E300081F202E0B0FA80F220329046FFF72AFFFA
:100E400004460F4640EA0A0041EA0B0153465A465F
:100E5000084313D0114653EA010019D0C8F14002EB
:100E60005046FFF75FF905460E4650465946424642
:100E7000FFF710FF084305D0012004E02046394663
:100E8000BDE8F08D0020054346EAE0762C43374369
:100E90000A986305E40AA0EB08000022FD0A44EA70
:100EA00047540A3002D500200146E9E70105101930
:100EB0006941DDE9084500196941BDE8F04DA2E747
:100EC0000EB540F2334202920022CDE900221346D1
:100ED000FFF7A8FF03B000BDC1F30A52C1F313012D
:100EE00040F2FF3341F480119A4202DA00200146B9
:100EF000704740F233439A42A2F2334202DC52423C
:100F0000FFF710B9FFF7C6BE30B5041E71F100043B
:100F100004DB4FF00044404264EB0101141E73F106
:100F2000000405DB1C464FF00043524263EB040310
:100F3000994208BF904230BD064C074D06E0E0687C
:100F400040F0010394E8070098471034AC42F6D310
:100F5000FFF7D0F8B84A0008D84A0008C0B24FF4EA
:100F6000F05100F097B900002DE9F34F8BB04FF02E
:100F7000000801F10C000C464FF0010B46460DF144
:100F8000080A01906269012101989047051E2DD041
:100F9000252D2CD0216A8847C0B1626901210198B2
:100FA0009047216A88470028F7D1411E626901985D
:100FB000904700E0761CA1690B988847216A884712
:100FC0000028F7D1E1690B988847DBE7A1690B9806
:100FD00088470746A84201D1761CD3E7E1690B9800
:100FE00088477F1C02D1B8F1000F6FD046E100277F
:100FF00062693D463946019890472A2804D16269C2
:101000000121019890470125DFF88492626901214E
:1010100001989047A0F130010A290AD24F45E5DC3A
:1010200007EB870100EB4107303FDFD445F01005A7
:10103000ECE7E90601D46FF000476C280AD04C2891
:1010400014D0682815D06A280DD074281CD07A28AE
:101050001AD01DE062690121019890476C2802D0E6
:1010600045F0040514E045F002050DE045F02005CB
:101070000AE06269012101989047682802D045F092
:10108000080505E045F40065626901210198904773
:10109000C4E9015765283DD019DC58287AD00CDC0A
:1010A000452837D004DC252826D0412831D131E02D
:1010B00046282FD047282CD12CE05B2877D06128F8
:1010C00028D063287CD0642823D15AE0D0E06F2850
:1010D00048D008DC66281DD067281BD0692821D09D
:1010E0006E2816D127E0702845D0732868D075285F
:1010F00047D078280DD14DE0A1690B988847054667
:1011000025283FF469AFE1690B9888476D1C3FF4CF
:101110006AAFB3E023466A466FF001000B99FFF710
:10112000ADF99EE045F040006060A80723464FF00F
:10113000000236D43EE0E8077FF447AF2068011D87
:1011400021600068290501D506701BE7290701D534
:10115000068017E7A90703D5F117C0E9006111E779
:1011600006600FE745F040006060A80723464FF097
:10117000080216D41EE040F60E0125EA0100606068
:1011800016E045F040006060A80723464FF00A02D1
:1011900007D40FE045F040006060A80708D523465B
:1011A00010226FF001000B99AFF3008059E007E0C7
:1011B000234610226FF001000B99FFF725F850E04D
:1011C0004FF000094F464B46632802D05B2806D0FB
:1011D00040E0E80601D40120A06001273AE06269FE
:1011E0000121019890475E2805D14FF001096269FD
:1011F000494601989047216939B900210A4653466A
:1012000043F82120491C0829FADBB0B3216969B9E8
:10121000C11700EBD16253110AEB830122F01F02C8
:10122000821A01200B68904003430B606269012120
:10123000019890475D28E8D1B9F1000F09D000204E
:10124000514651F82020D24341F82020401C082864
:10125000F7DB02AB224600976FF001000B99AFF36A
:10126000008000280CDA401C08D1BBF1000F05D02B
:101270004FF0FF300DB0BDE8F08FFFE74046F9E7D3
:10128000E90701D108F1010806444FF0000B79E6A7
:10129000CCCCCC0C7F2801D9002208E0064A02EB16
:1012A0005002C007127800D1120902F00F0201208B
:1012B00090400840704700009A490008FEE700008F
:1012C000014800F021B80000380A0020014800F071
:1012D0001BB800007C0A002030B590F84050012473
:1012E000AC40C56B6C60046863604368102B036896
:1012F00003D099600068C26030BD9A600068C16028
:1013000030BD7047704700002DE9F05FC16B0C687D
:1013100001680B68D0F840C0042202FA0CF2494D73
:10132000DFF824A1494E4A4FDFF828B1DFF828E161
:1013300022422CD05A072AD50A68920603D40A689A
:1013400022F004020A600168A94201D1042219E0D6
:10135000514501D1402215E0B14202D14FF48062E3
:1013600010E0B94202D14FF480420BE0594502D15E
:101370004FF4802206E0714502D14FF4800201E073
:101380004FF080622F4908394A60C16A3BE04FF054
:10139000020808FA0CF818EA040F4FF000094FF0A1
:1013A000010235D05FEA837832D50B689B0605D4FD
:1013B0000B6823F00A030B6080F821200168A94222
:1013C00001D1022219E0514501D1202215E0B1429C
:1013D00002D14FF4007210E0B94202D14FF4005232
:1013E0000BE0594502D14FF4003206E0714502D1BD
:1013F0004FF4001201E04FF00072124908394A60C0
:1014000080F82090816A00291AD0BDE8F05F084773
:10141000082505FA0CF5254212D01B0710D50B68DC
:1014200023F00E030B6090F84010C36B02FA01F139
:101430005960826380F8212080F82090016BE2E7F8
:10144000BDE8F09F080002401C000240300002404E
:1014500044000240580002406C00024030B528B3FE
:1014600008C8134914221944B1FBF2F18900C16381
:1014700010498163022141771A6843F6F0718A436B
:10148000D0E900142143D0E902452C4321430469EB
:101490002143446921438469214311431960002198
:1014A0004163012242770177084630BD012030BDFB
:1014B000F8FFFDBF0000024070B5044690F8200020
:1014C000002501280CD0012084F8200094F8216028
:1014D0000020012E06D084F820000225284670BD89
:1014E000022070BD022684F82160A063206806688F
:1014F00026F0010606602046FFF7EEFEE06A0028AF
:101500002068016802D041F00E0106E021F00401DC
:1015100001602068016841F00A01016020680168EB
:1015200041F001010160D9E770B5044600F004F90B
:101530000546601C02D004480078044400F0FCF822
:10154000401BA042FAD370BD480000202DE9F84F9F
:10155000DFF8B891002409F1040A0AF1040B2346CC
:101560000F270BF1040EC9E00125A5402A40AA422D
:101570007DD1674ED1F804C0ACEB0608B44532D03B
:1015800014DCBCF1030F3AD009DCBCF1000F2AD007
:10159000BCF1010F1CD0BCF1020F31D11DE0BCF138
:1015A000110F17D0BCF1120F2AD119E0B8F5881F1E
:1015B00019D006DCB8F5803F15D0B8F5801F1FD1D3
:1015C00011E0B8F5001F0ED0B8F5041F18D10AE0DD
:1015D000CB6815E0CB681B1D12E0CB6808330FE029
:1015E000CB680C330CE08B682BB1012B4FF0080358
:1015F00003D0456104E0042302E0056100E000231C
:10160000FF2A01D8064601E000F104064FEA8405EE
:1016100001D9A5F12005D6F8008007FA05FC28EAD3
:101620000C0803FA05F548EA0508C6F800804D687D
:10163000ED0062D5374DAE6946F00106AE61AD6989
:1016400024F0030605F001050095334D06EB050C6B
:10165000DCF80850A607360F07FA06F825EA080551
:10166000DFF8B880404503D14FF0000817E044E0B0
:10167000DFF8AC80404502D14FF001080FE0DFF801
:10168000A480404502D14FF0020808E0DFF89880BE
:10169000404502D14FF0030801E04FF0040808FA7A
:1016A00006F848EA0508CCF808804D68D9F80060CB
:1016B000ED034D4601D5164300E096432E604D687C
:1016C000DAF80060AD03554601D5164300E09643B5
:1016D0002E604D68DBF80060ED025D4601D51643D3
:1016E00000E096432E604D68DEF80060AD0275465E
:1016F00001D5164300E096432E60641C0D682A460F
:10170000E5407FF431AFBDE8F88F000000040140F0
:1017100000001110001002400000014000080140CC
:10172000000C014000100140001401400AB10161A9
:1017300070470904FBE7000001488068704700001B
:101740004800002070B5040025D094F83D00002525
:1017500020B984F83C50204600F0B8F8242084F8E2
:101760003D002068016821F00101016020680168E6
:1017700041F4004101602068016821F400410160EA
:1017800000F000FA4D4A6168914201D84C4900E0EE
:101790004C49884201D2012070BD4B492368B0FBFF
:1017A000F1F15E6826F03F060E435E606368934287
:1017B00006D94FF4967359434FF47A73B1FBF3F1A2
:1017C0002368491C1E6A26F03F063143196261688E
:1017D000914210D84900401EB0FBF1F2521CC2F3F6
:1017E0000B02042A01D2042022E0B0FBF1F0401CDD
:1017F000C0F30B001CE0A268F2B301EBC10303EBE2
:101800000116431EB3FBF6F35B1C43F480431B0538
:1018100049D092B301EBC10202EB0111401EB0FBB3
:10182000F1F0401CC0F30B0040F4804040F4004055
:101830002168CA694CF6FF739A431043C861D4E922
:10184000071001432068026822F0C00211430160C2
:10185000D4E9030101432068826848F2FF339A43C8
:1018600011438160D4E9050108432168CA6822F068
:10187000FF021043C86001E00EE016E02068016836
:1018800041F0010101602564202084F83D002563BA
:1018900084F83E50002070BD01EB4106431EB3FBAF
:1018A000F6F35B1CB3E70120C2E701EB4101401EE8
:1018B000B0FBF1F0401CC0F30B00B7E7A0860100BD
:1018C00080841E0000093D0040420F0010B586B024
:1018D0000021009101910291039100680F49884213
:1018E0001AD10F4CA06940F00800A061A0696946B8
:1018F00000F008000490C020009012200190032006
:1019000003900848FFF722FEE06940F40010E06110
:10191000E06900F40010049006B010BD00540040CF
:1019200000100240000C0140024881680278114416
:101930008160704748000020074810B5016841F0F9
:1019400010010160032000F075F8002000F006F897
:1019500000F024F8002010BD0020024070B50D4DAD
:1019600004464FF47A712878B1FBF0F00A4909680F
:10197000B1FBF0F000F0CFFD48B9102C07D20022E7
:101980002146501E00F036F800206C6070BD01202A
:1019900070BD000048000020540000200C4808B52D
:1019A000816941F001018161816901F001010091CA
:1019B000C16941F08051C161C06900F08050009060
:1019C0000448416821F0E06141F00071416008BDC8
:1019D0000010024000000140002809DB00F01F0257
:1019E000012191404009800000F1E020C0F8001181
:1019F00070470000F0B40E4B1B680C46C3F3022383
:101A0000C3F10705042D00D90425191D072901D2AA
:101A1000002300E0DB1E012606FA05F1491E2140E5
:101A200099409E40761E16403143F0BC01F0F8BD4F
:101A30000CED00E0064900F0070208684FF6FF03CE
:101A4000184040EA0220034A104308607047000033
:101A50000CED00E00000FA052DE9F0470F46050007
:101A600061D0434E306800F00700B84209D23068B8
:101A700020F0070038433060306800F00700B842BB
:101A800051D128683B4C810712D5400703D56068C7
:101A900040F4E06060602878000703D5606840F497
:101AA000605060606068A96820F0F00008436060E2
:101AB0002878C00728D06868012810D0216802283B
:101AC00010D0890700292EDA616821F00301014353
:101AD0006160FFF731FE804641F288390DE02168F0
:101AE0008903EFE78901EDE7FFF726FEA0EB080188
:101AF000494502D90320BDE8F0876068696800F0B5
:101B00000C00B0EB810FEFD1306800F00700B84255
:101B10000BD9306820F0070038433060306800F09F
:101B20000700B84201D00120E5E72878400705D535
:101B30006068E96820F4E060084360602878000786
:101B400006D56068296920F4605040EAC1006060F1
:101B500000F038F86168084AC1F30311515CC840CD
:101B60000649086006480068FFF7F8FE0020C2E753
:101B7000002002400010024082490008540000206A
:101B80004C0000200448054900684968044AC1F334
:101B90000221515CC84070475400002000100240F0
:101BA000924900080448054900684968044AC1F39D
:101BB000C221515CC8407047540000200010024010
:101BC0009249000812A185B00FC98DE80F0014A03A
:101BD000144A006804905168134801F00C03042B68
:101BE00010D0082B0ED1C1F38343C9031DF80300A5
:101BF0000AD5516804AAC1F34041515C0A4A5043D6
:101C0000B0FBF1F005B0704708494843FAE700001F
:101C100002030405060708090A0B0C0D0E0F10102D
:101C2000010200000010024000127A0000093D008D
:101C30002DE9F84F040070D02078C04DC00749D07E
:101C40006868C0F38100012807D06868C0F381008C
:101C5000022809D16868C00306D52868800339D5F1
:101C600060680028E7D035E06068B0F5803F0BD0B1
:101C700010B1B0F5A02F11D0286820F48030286072
:101C8000286820F4802002E0286840F48030286032
:101C9000606890B1FFF750FD06460AE0286840F4FE
:101CA00080202860F0E700BFFFF746FD801B642816
:101CB00073D828688003F7D50CE0FFF73DFD064692
:101CC00005E000BFFFF738FD801B6428F0D82868C6
:101CD0008003F7D420789A4E80074FF001094FF027
:101CE000000839D5686810F00C0F07D06868C0F399
:101CF0008100022809D16868C00306D428688007DB
:101D000014D52069012808D110E02069B0B1C6F8C7
:101D10000090FFF711FD074605E00AE1FFF70CFD13
:101D2000C01B0228C4D828688007F7D528686169D5
:101D300020F0F80040EAC10028600DE0C6F80080FD
:101D4000FFF7FAFC074604E0FFF7F6FCC01B022889
:101D500023D828688007F7D4207800072CD5794845
:101D6000A169D9B1C0F80090FFF7E6FC074604E08E
:101D7000FFF7E2FCC01B02280FD8686A8007F7D57E
:101D800071484FF4FA510068B0FBF1F0009000BFC9
:101D90000098411E0091FAD20EE080E0C0F8008069
:101DA000FFF7CAFC074604E0FFF7C6FCC01B022889
:101DB00075D8686A8007F7D42078400760D5E8694D
:101DC0000027C00008D4E86940F08050E861E86965
:101DD000012700F0805000905C480168C90513D4C9
:101DE0000168834641F480710160FFF7A5FC8246DB
:101DF00006E000BFFFF7A0FCA0EB0A0064284ED865
:101E0000DBF80000C005F5D5E06801280AD008B16C
:101E1000052813D0286A20F001002862286A20F0E3
:101E2000040002E0286A40F001002862E06841F204
:101E3000883B98B1FFF780FC82460BE0286A40F0AF
:101E400004002862EEE700BFFFF776FCA0EB0A0172
:101E500059455AD8286A8007F6D50CE0FFF76CFC84
:101E6000824605E0FFF768FCA0EB0A0159454CD813
:101E7000286A8007F6D41FB1E86920F08050E86135
:101E8000E06988B36968C1F38101022944D002285E
:101E9000C6F8608004D0FFF74FFC044638E034E019
:101EA000FFF74AFC074604E0FFF746FCC01B022888
:101EB0002BD828688001F7D4206AB0F5803F05D17F
:101EC0006868A16820F4003008436860D4E908011C
:101ED0000843696821F4741108436860C6F860908B
:101EE000FFF72AFC044606E025E000BFFFF724FCCC
:101EF000001B022809D828688001F7D51BE000BF25
:101F0000FFF71AFC001B022802D90320BDE8F88F56
:101F100028688001F4D40EE00128F7D06868226AAE
:101F200000F48031914204D1616A00F4701088425B
:101F300001D00120EAE70020E8E70000001002409D
:101F400000004242800442425400002000700040E1
:101F500070B5040009D0606A002540B12561656153
:101F6000A56294F8510040B10CE0012070BD60689A
:101F7000B0F5827FF4D0E561F2E784F85050204656
:101F800000F040F8022084F851002068016821F038
:101F900040010160A088218900F4827001F40441AD
:101FA0000843A18901F400610843217C01F002018A
:101FB0000843217D01F001010843218B01F40071E8
:101FC0000843217F01F03801084394F8201001F004
:101FD00080010843218D01F4005108432168086005
:101FE000A069042101EA1040216848602068C169A5
:101FF00021F40061C1616565012084F85100002071
:1020000070BD000030B585B00024009401940294A6
:10201000039400681449884223D11448816941F42B
:1020200080518161816901F480510491816941F09D
:102030000401816180690E4D00F004000490A0202D
:102040000090022001900320039069462846FFF784
:102050007DFA4020CDE90004694628460294FFF746
:1020600075FA05B030BD000000300140001002409C
:10207000000801402DE9F84F0446406800259846C5
:1020800016460F464FF0040BB0F5827F01D1A068D1
:1020900088B194F85000012818D0012084F850002D
:1020A000FFF74AFB814694F851004FF0000A0128DF
:1020B0000ED0022582E084F851B013460A4620462D
:1020C000CDF8008000F036F9BDE8F88F0220FBE77C
:1020D000002F72D0002E70D084F851B0C4F854A0F4
:1020E000A763A687E687C4F830A0A4F834A0A4F8B4
:1020F00036A0C4F840A0C4F844A0A068B0F5004FD2
:1021000009D12068016821F0400101602068016860
:1021100021F48041016020680168490603D4016808
:1021200041F040010160E068D8B139E02068816881
:10213000C90709D0007BA16B0870A06B401CA0638D
:10214000E08F401EE0870CE0FFF7F6FAA0EB0901F4
:10215000414503D3B8F1FF3F03D036E0B8F1000F9B
:1021600033D0E08F0028E1D11DE020688168C907E5
:1021700009D0C068A16B0880A06B801CA063E08FB1
:10218000401EE0870CE0FFF7D7FAA0EB09014145BC
:1021900003D3B8F1FF3F03D017E0B8F1000F14D01C
:1021A000E08F0028E1D14A464146204601F015F86B
:1021B00008B120206065606D00B10125012084F820
:1021C000510084F850A028467EE70325F6E72DE964
:1021D000F84F044690F8500000271D4616468946E1
:1021E00001280DD04FF0010B84F850B0FFF7A4FA8E
:1021F000804694F85100BA46012804D0022793E0A3
:102200000220BDE8F88FB9F1000F73D0002E71D015
:10221000032084F85100C4F854A0C4F83090A68676
:10222000E686C4F838A0A4F83CA0A4F83EA0C4F800
:1022300044A0C4F840A0A068B0F5004F09D12068C0
:10224000016821F0400101602068016841F480418B
:10225000016020680168490603D4016841F040012B
:102260000160E068B0F5006F606803D030B3012E04
:1022700024D041E008B1012E1CD1206B21680088D8
:10228000C86006E020688168890709D5216B098844
:10229000C160206B801C2063E08E401EE08609E058
:1022A000FFF74AFAA0EB0800A84202D3681C01D04D
:1022B00031E07DB3E08E0028E4D120E0206B21687E
:1022C0000078087306E020688168890709D5216BCA
:1022D00009780173206B401C2063E08E401EE0866D
:1022E0000AE0FFF729FAA0EB0800A84203D3681C14
:1022F00002D010E017E06DB1E08E0028E3D1424635
:102300002946204600F097FF08B120206065A068AC
:1023100018B106E0FFE7032706E02068C16880687F
:102320000090606D00B1012784F851B084F850A08E
:10233000384666E72DE9F84F044690F8500000272C
:102340000A9E1D4692468B464FF0010901280ED089
:10235000012084F85000FFF7EFF9804694F851000F
:10236000616801280CD0B1F5827F07D102E002201C
:10237000BDE8F88FA16809B9042801D00227C2E09E
:10238000BBF1000F27D0BAF1000F24D01DB394F891
:102390005100042802D0052084F851000020606517
:1023A000C4F838A0E587A587C4F830B0E586A586CF
:1023B0002064606420680168490603D4016841F024
:1023C00040010160E068B0F5006F606805D0E8B3D7
:1023D000012D46D07FE0012795E008B1012D39D1CC
:1023E000206B21680088C860206B801C2063E08E11
:1023F000401EE0862EE02068816889070FD5E18EB7
:1024000069B1B9F1010F0AD1216B0988C160206B54
:10241000801C2063E08E401EE0864FF0000920689B
:102420008168C9070CD0E18F51B1C068A16B0880E9
:10243000A06B801CA063E08F401EE0874FF0010975
:10244000FFF77AF9A0EB0800B04200E009E001D301
:10245000701C50D1E08E0028CDD1E08F0028CAD169
:102460003FE0206B216800780873206B401C2063DC
:10247000E08E401EE0862EE02068816889070FD537
:10248000E18E69B1B9F1010F0AD1216B09780173AD
:10249000206B401C2063E08E401EE0864FF0000958
:1024A00020688168C9070CD0E18F51B1C068A16B69
:1024B0000870A06B401CA063E08F401EE0874FF0C7
:1024C0000109FFF739F9A0EB0800B04202D3701CF4
:1024D00001D010E07EB1E08E0028CDD1E08F002841
:1024E000CAD142463146204600F0A5FE28B1012758
:1024F0002020606507E0032705E0A06818B9206880
:10250000C16880680090012084F85100002084F8A0
:10251000500038462CE710B5401EB0F1807F01D343
:10252000012010BD4FF0E02460610F21601701F021
:1025300077F80020A06107202061002010BD7047BF
:10254000704770B5040004D094F83D00002510B128
:1025500006E0012070BD84F83C50204600F022F8CF
:10256000242084F83D002068C16821F40051C16036
:10257000204600F079FF2068016921F49041016153
:102580002068416921F02A0141612068C16841F455
:102590000051C1602564202084F83D0084F83E008D
:1025A000002070BD2DE9F04186B000240094019414
:1025B000029403940646DFF8E8C003683948022114
:1025C0000322394D80274FF02008634530D18369BD
:1025D00043F480438361836903F4804304938369F4
:1025E00043F0040383618069039200F004000490C7
:1025F0000802CDE9000169462846FEF7A7FF281525
:10260000CDE90004694628460294FEF79FFF284D55
:102610002648C5E90004C5E902472C61C5E905481B
:102620002846EC6134E0B5636E6206B0BDE8F08127
:10263000DFF880C06345F8D1C36943F40033C36158
:10264000C36903F400330493836943F00403836193
:102650008069039200F0040004900420CDE9000199
:1026600069462846FEF772FF0820CDE90004694656
:1026700028460294FEF76AFF0C480F4D1430C5E956
:102680000004C5E902472C61C5E905482846EC610C
:10269000FEF7E4FE0028C6D0FEF734FEC3E70000D4
:1026A000003801400010024000080140580002407C
:1026B000380A0020004400407C0A002090F83E3098
:1026C000202B0ED159B152B190F83C30012B08D0DB
:1026D000012380F83C300023036300F021BF012078
:1026E00070470220704700002DE9F04F81460068D6
:1026F0009A499B4C85B088427ED19A4A002002F2CA
:10270000EE2340F2EE21155C1D54401C8842FADB9A
:1027100095A19748FDF73AFD964A00212061435C58
:102720005354491CC829FADB8D4893A1001D031F8F
:1027300000F1140200908F48FDF74AFD884B01AD6F
:102740003033191F1A1D081F85E80F001C38031F9E
:1027500000908848183A8EA16730FDF739FD944DF6
:10276000206B2946FDF7FEFF02F0D2F82946FEF75E
:102770002BF8A06301908F49A069FDF79BFFA06132
:102780008D492068FEF720F8824620608A496068FB
:10279000FEF71AF88346606087495046FDF7E2FF6E
:1027A000FEF7E9F90090FEF7D5F905460E465046CA
:1027B000FEF7FAF90022814BFEF7EBF833462A4682
:1027C000FEF7E1F800227E4BFEF755F907468846F2
:1027D0005046009DFEF7CFF982466FF0180148433E
:1027E00005EB8000FEF7B6F90022754BFEF743F9C2
:1027F00005460E46504600E08AE0FEF7ABF92A4651
:102800003346FEF71FF83A464346FEF71BF8FEF73D
:10281000DEF9206268495846FDF7A4FFFEF7ABF9E0
:102820008246FEF797F905460E465846FEF7BCF974
:102830000022624BFEF7ADF82A463346FEF7A3F8B6
:1028400000225F4BFEF717F9074688465546584663
:10285000FEF791F982466FF01801484305EB8000BE
:10286000FEF778F90022564BFEF705F905460E46AD
:102870005046FEF76FF92A463346FDF7E3FF3A4626
:102880004346FDF7DFFFFEF7A2F960620198FEF70D
:102890008BF9024632480B464AA13C3000F0ACFEB0
:1028A000206AFEF781F905460E46606AFEF77CF95C
:1028B000E26ACDE903628DE823002E48472242A157
:1028C000E63000F099FE2B492020E631C877A06958
:1028D000FEF76AF905460E46A06BFEF765F9CDE9ED
:1028E00000560B4602463CA13D4800F085FE20689C
:1028F00010F0FF4F2ED00020616811F0FF4F2BD059
:102900000021084304D0364836A12038FDF757FC93
:102910003A49D9F80000884219D112490020C83933
:1029200001F2A4620B5C1354401CC828FADB114866
:1029300033A1C838FDF72AFC294A00213E3A6061DC
:10294000435C5354491C1D29FADB0A20507705B01B
:10295000BDE8F08F0120CFE70121D2E70038014028
:10296000000000206C0200204750524D4300000040
:102970005A050020100900204750524D432C25666F
:102980002C20412C25662C204E2C25662C00000086
:1029900047504747412C25662C25662C4E2C256632
:1029A0002C452C25642C25642C25662C25662C00B2
:1029B0000000204100B888470000C842000059408C
:1029C00000004E4025660000256320256620256610
:1029D00020257520000000002566202566200000C7
:1029E000160A002047203130362E36353932373836
:1029F0002031302E3737323631310000004400406C
:102A000044000000704700002DE9F843044690F8A8
:102A10003D001F4616460D4620284CD1C5B1BEB11B
:102A200094F83C00012846D0012084F83C004FF087
:102A30000008C4F84080212084F83D00FEF77CFEA9
:102A4000A6848146E684A068B0F5805F03D004E0E8
:102A50000120BDE8F883206928B12E465FF000050B
:102A600084F83C800EE00026FAE78021204600F042
:102A70008FFDA0B9AEB116F8010B21684860E08C5B
:102A8000401EE084E08C4B464FF000020097002887
:102A9000EBD14FF04001204600F07AFD30B1032029
:102AA000D7E735F8020BC0F30800E6E7202084F8EA
:102AB0003D000020CDE70220CBE7FEE7F0B585B072
:102AC00000241C480094019402940394816941F00D
:102AD00020018161816901F020010491816941F047
:102AE00004018161816901F004010491816941F06F
:102AF000080181618069104F00F008004FF44076B2
:102B00000490002231463846FEF710FE0225CDE93A
:102B10000054694609480294FEF718FD01AA0120F5
:102B2000009682E8310069463846FEF70FFD05B091
:102B3000F0BD000000100240000C01400008014000
:102B40000C480B494FF4007201604FF482714160F0
:102B500000218160C1600161C0E905122022C0E945
:102B60000721416281620A21C162FFF7F1B90000C9
:102B700000300140C4000020FEE7704708B5002087
:102B800000F008F950208DF8000073208DF8010046
:102B90006423022269460348FFF719FB012000F075
:102BA000F9F808BDC00A00200449054A0968B1FBCC
:102BB000F2F14143491EFDD270470000540000204D
:102BC000C0C62D0070B5054600F055F90446C0F3A7
:102BD00080166EB115B1C4F3420028704021072061
:102BE00000F0C4FAA00603D52021072000F0BEFAA9
:102BF000304670BD0FB47CB514460D4606465822CB
:102C000009A95D48FDF79EFA5C4B0120DE60DD807E
:102C10001C8100F0BFF8002000F0B2F80520FEF79C
:102C200083FC0821002000F0A1FA3F21012000F0E0
:102C30009DFA0321022000F099FA0321084600F0D2
:102C400095FA0321042000F091FA0221052000F0FA
:102C50008DFA0F21062000F089FA0E21072000F0DE
:102C600085FA0021082000F081FA0021092000F0F7
:102C70007DFAE7248DF803408DF802408DF801407D
:102C80008DF804408DF80040052269460A2000F0C6
:102C900085FAC2208DF803008DF802008DF801003E
:102CA0008DF804008DF80000052269460B2000F025
:102CB00075FAC3210C2000F059FAC4210D2000F050
:102CC00055FAC5210E2000F051FAC6210F2000F060
:102CD0004DFA8DF803408DF802408DF801408DF8D3
:102CE00004408DF8004005226946102000F056FA95
:102CF0000021112000F03AFA0021122000F036FAEB
:102D00000021132000F032FA0021142000F02EFAE6
:102D10000021152000F02AFA0021162000F026FAE2
:102D2000FFF72CFF00211C2000F020FA00211D20BD
:102D300000F01CFA01F004FA0F21084600F078F9BF
:102D4000032000F04FF9012000F01EF9022000F0EE
:102D500000F900F029F8202000F062F900F0EEF808
:102D60004C2000F00AF900F07FF800F079F800F04C
:102D70009BF87CBC5DF814FBC00A002058000020C2
:102D8000020003480189C06800D00122FEF7CEBCD2
:102D90005800002002000348C188C06800D001220A
:102DA000FEF7C4BC5800002010B51D2000F088F8C4
:102DB00020F004011D2000F0D9F900211C2000F0B2
:102DC000D5F902490020C87010BD0000580000204D
:102DD00010B51D2000F074F840F006011D2000F031
:102DE000C5F91D2000F06CF848B9FFF7C7FE1D209B
:102DF00000F066F840F006011D2000F0B7F91C2035
:102E000000F05EF840F00301BDE810401C2000F027
:102E1000ADB9000010B51D2000F052F840F00401DB
:102E20001D2000F0A3F91D2000F04AF848B9FFF773
:102E3000A5FE1D2000F044F840F004011D2000F024
:102E400095F91C2000F03CF840F03F011C2000F0F8
:102E50008DF902490120C87010BD00005800002003
:102E6000FF21E22000F082B9FF21E12000F07EB9CD
:102E7000602000F025B8072000F022B813B5052225
:102E800069460A2000F08AF905226946102000F000
:102E900085F904488178202900D32021112000F0F1
:102EA00065F91CBD5800002010B5002000F008F89E
:102EB00020F00201BDE81040002000F057B90000EA
:102EC00038B504460020FFF765FF04F01F008DF8B9
:102ED00000006423012269460848FFF778F964235B
:102EE000012206480DF10101FFF7C4F89DF80140E9
:102EF0000120FFF74FFF204638BD0000C00A002028
:102F0000F8B5044615460E460020FFF743FF04F0CF
:102F10001F008DF800006423012269460648FFF770
:102F200056F964232A4631460348FFF7A3F80120E7
:102F3000FFF730FFF8BD0000C00A00207021072015
:102F400000F014B908B13F2100E00021012000F099
:102F50000DB910B504460020FFF7B2FF20F00C01B8
:102F60001CB1012C06D041F00C01BDE8104000203E
:102F700000F0FCB841F00801F7E77F2800D37F207C
:102F80000146052000F0F2B82DE9F04107464FF068
:102F900000080620FFF794FF114D002620F02804BA
:102FA0006E71022F0ED0012F10D06E7121460620B7
:102FB00000F0DCF80620FFF783FFA0420BD14FF0B2
:102FC000010809E06E7144F02004EFE70120687108
:102FD00044F00804EAE76E714046BDE8F081000065
:102FE0005800002010B504460620FFF769FF20F0C6
:102FF0000601032C0DD0022C05D0012C06D054B1B3
:10300000042C06D007E041F0040104E041F0020185
:1030100001E041F00601BDE81040062000F0A6B82E
:10302000202800D3202001498870704758000020D4
:1030300000F00F0060F31F11042000F097B870B586
:1030400005460C460020FFF79BFE0020FFF738FFE7
:1030500020F0010040F00201002000F087F801207C
:10306000FFF78EFE9620FFF79FFD2146284600F0D1
:1030700061F80120FFF784FE0F20FFF795FDBDE802
:1030800070400020FFF77CBE10B50020FFF778FEEF
:10309000FFF7EAFEBDE81040FFF7E2BE2DE9F04180
:1030A00015460E460446FFF7E6FE07460020207050
:1030B0007021072000F05AF8C7F340102070C7F3C2
:1030C00000103070C7F380102870BDE8F081000058
:1030D0003EB50C460546FFF731FF21462846FFF76F
:1030E000AEFFFEF729FB0446012201A90820FFF7E5
:1030F00007FFFFF7C0FE10F0300F04D1FEF71CFBF6
:10310000001B0A28F0D30A4A02A96846FFF7C6FF47
:10311000074C9DF80050207810B1FFF7A9FE6070B1
:103120000020FFF74FFDFFF79FFE28463EBD000041
:103130005800002038B505460C460020FFF72AFE4F
:10314000A0208DF800006423012269460648FFF79D
:103150003EF86423224629460348FFF738F8012049
:10316000FFF718FE38BD0000C00A002038B505463C
:103170000C460020FFF70EFE45F020008DF8000001
:103180008DF801406423022269460348FFF71FF8C7
:103190000120FFF7FFFD38BDC00A0020F8B5044646
:1031A00015460E460020FFF7F5FD44F020008DF88F
:1031B00000006423012269460648FFF708F86423EB
:1031C0002A4631460348FFF702F80120FFF7E2FDE7
:1031D000F8BD0000C00A00207047F8B504464068FA
:1031E0004FF48273984217D1A0684FF48065B0F510
:1031F000004F01D0A8420FD12068066826F0400693
:1032000006606068984207D1A068A84204D1009285
:103210000B460022012103E000920B460022802190
:10322000204600F019F8002804D0606D40F020001E
:1032300060650320F8BD38B50B46009204460022B5
:10324000802100F009F8002804D0606D40F02000D3
:103250006065032038BD00002DE9F8431E46914605
:1032600088460446089DFEF767FA401B351AFEF7AC
:1032700063FA074625480068C0F3CB30684338E05E
:10328000701C37D0FEF758FAC01BA84203D215B104
:10329000009860B32CE02068416821F0E0014160B3
:1032A0006068B0F5827F0BD1A068B0F5004F02D006
:1032B000B0F5806F04D12068016821F04001016001
:1032C000A06AB0F5005F09D12068016821F40051BF
:1032D00001602068016841F400510160012084F818
:1032E0005100002084F850000320BDE8F883002539
:1032F000401E00902068816838EA010004D0002157
:103300004945BDD10020F0E70121F9E75400002034
:103310007047FEF709BB30B58FB028216846FCF72F
:103320002AFF14210AA8FCF726FF01210804CDE991
:1033300000100024029402250491CDE907504FF4B7
:10334000E01009906846FEF773FC0F20CDE90A05EE
:103350006802CDE90C4002210AA80E94FEF77CFB1E
:103360000FB030BD704770B5446A2068406994F86A
:103370003D10C0F3C0100025212904D118B1E58407
:10338000204600F067F82068406994F83E10C0F3CA
:103390008010222904D118B1E585204600F042F8BA
:1033A000206C40F0100020642046FFF7C9F870BD83
:1033B00010B50146406A0968096889061BD40021D6
:1033C000C1850168CA6822F48072CA6001684A69CE
:1033D00022F001024A6101684A6922F040024A6112
:1033E000202180F83E10016B012904D10168CA68D0
:1033F00022F01002CA60016B012902D0FFF774F9B4
:1034000010BD818DFFF79BF810BD10B5406A016BB0
:10341000012902D0FFF7F6FA10BD818D4908FFF7A8
:103420008EF810BD0168CA6822F49072CA60016803
:103430004A6922F001024A61016B012904D1016845
:10344000CA6822F01002CA60202180F83E100021D4
:10345000016370470168CA6822F0C002CA60202177
:1034600080F83D107047000070B50446006801699F
:10347000E26821F44051114301612169A0680843C9
:10348000616908432168CA6841F20C639A430243A8
:10349000CA6020684169A26921F440711143416109
:1034A0001E492068884202D1FEF77CFB01E0FEF74E
:1034B00069FB00EBC00101EB001260686421800031
:1034C000B2FBF0F3B3FBF1F36FF018067343B2FBFA
:1034D000F0F5B2FBF0F605EB8305322303EB05159F
:1034E000B5FBF1F5B6FBF1F605F0F00505EB0615B9
:1034F000B2FBF0F6B2FBF0F0B0FBF1F06FF01802A7
:10350000504306EB800003EB0010B0FBF1F02168A4
:1035100000F00F002844886070BD000000380140B2
:1035200038B5816282850025134604460564222051
:1035300084F83E00A26B13489062A26B1248D062DE
:10354000A26B12481063A06B0A4645632168A06B0A
:10355000091DFDF7B1FF206801684168009184F8FA
:103560003C50C16841F48071C1602068416941F0FC
:10357000010141612068416941F040014161002041
:1035800038BD0000B13300080B3400086733000871
:103590002DE9F041984617460E460446069D1DE06B
:1035A000681C1BD02DB1FEF7C7F8A0EB0800A8429D
:1035B00014D92068C16821F4D071C16020684169C4
:1035C00021F001014161202084F83D0084F83E0093
:1035D000002084F83C000320BDE8F08120680068EA
:1035E00036EA000004D00020B842D9D00020F3E72A
:1035F0000120F9E7FEE700000FB4084B10B504A95D
:1036000002AA039800F0F6F8044602A9002000F090
:1036100088FC204610BC5DF814FB0000233F000826
:103620000907090E002804DB00F1E02080F80014EF
:10363000704700F00F0000F1E02080F8141D704783
:1036400002E008C8121F08C1002AFAD1704770476B
:10365000002001E001C1121F002AFBD170470000C9
:103660002DE9FF5F82B00021DDE90430020DDDF8B5
:1036700040B0034318D044F61050A2F2FF32424348
:103680001514119801281FD0A5EB0B00401C5FEA10
:10369000000A4FF000064E4FDFF83891B046504612
:1036A00015D5CAF1000413E0119801244AA301289A
:1036B00001D16FEA0B010298119AC0E90031C0E90B
:1036C000024206B0BDE8F09FCBF10000DFE7044600
:1036D0000021404A491842EB0450CDE9001012E0A5
:1036E000E00707D032463B4640464946FDF751F9D0
:1036F0008046894632463B4610461946FDF749F951
:1037000006460F466410002CEAD1DDE90401DDE92C
:103710000023BAF1000F06DAFDF73BF942464B46AB
:10372000FDF737F905E0FDF7A6F942464B46FDF7F0
:10373000A2F904460E460022284BFDF7E5FB03D80C
:103740004FF0FF30014607E00022254B204631466E
:10375000FDF778F8FDF7C0FB102409E0002C0ADB28
:103760000A220023FDF765FA039B30321A55641EC6
:1037700050EA0102F2D1641C039AC4F1110314440B
:10378000119A012A03D0012208430DD10AE008430F
:1037900004D000204FF0110B119072E7A3EB0B0542
:1037A0006D1E0DE05B4504DD4FF0000205F10105E3
:1037B00004E003DA4FF00002A5F10105002AECD085
:1037C00002981199C0E90231C0E9004579E700008B
:1037D000000014400000F03F300000000000F04303
:1037E0000000E03F30380A2801D201207047002055
:1037F000704700002DE9FF4F95B09B46894606466D
:1038000000250FE2252877D100242746F84A012118
:10381000059400E0044316F8013F203B01FA03F051
:103820001042F7D130782A2811D06FF02F0330786A
:10383000A0F13002092A16D8059A44F0020402EBDE
:10384000820203EB42021044761C0590EFE759F820
:10385000042B0592002A03DA504244F400540590E8
:1038600044F00204761C30782E2816D116F8010F89
:1038700044F004042A280DD06FF02F023078A0F114
:103880003003092B09D807EB870302EB4303C71862
:10389000761CF3E759F8047B761C30786C280FD03F
:1038A00006DC4C2817D068280DD06A2814D104E013
:1038B000742810D07A280FD10DE044F400140AE0E7
:1038C00044F4801401E044F440147278824202D13E
:1038D00004F58014761C761C307866280BD013DC37
:1038E000582877D009DC002875D04528F6D046281E
:1038F000F4D047281AD19DE118E0632835D0642818
:1039000079D0652812D195E1702873D008DC67283A
:10391000F1D069286FD06E280DD06F2806D1B5E0A0
:1039200073282CD0752875D0782874D05A461799EA
:1039300090476D1C75E1C4F30250022809D003289A
:103940000DD0D9F8001004280DD00D6009F104093C
:1039500067E1D9F80010EA17C1E90052F6E7D9F893
:1039600000100D80F2E70D70F0E719F8041B8DF8D8
:10397000001000208DF80100EA46012003E059F80C
:1039800004AB4FF0FF3061074FF0000102D40DE0AF
:1039900008F101018846B9420FDA8045F8DB1AF8D0
:1039A00008100029F4D108E008F10101884681429D
:1039B000FADB1AF808100029F6D105985B46A0EB4F
:1039C000080721463846179A00F094FA284400EB7D
:1039D000080507E04DE029E10DE01AF8010B5A4611
:1039E00017999047B8F10108F7D25B46214638464F
:1039F000179A13E142E00A220092C4F302524FF0F8
:103A0000000A022A08D059F804CB032A4FEAEC71C5
:103A10000AD00DE029E02AE009F1070121F00702B0
:103A2000F2E802C1914609E00FFA8CFC4FEAEC7112
:103A3000042A03D14FFA8CFC4FEAEC71002907DA13
:103A40000A460021DCF1000C61EB02012D2202E0AC
:103A5000220504D52B228DF80420012203E0E20781
:103A600001D02022F7E7904659E00A2102E0102217
:103A70000DE010214FF0000A00910BE010224FF0F2
:103A8000000A44F004040827009203E008224FF0E3
:103A9000000A0092C4F30252022A05D059F804CB5E
:103AA0000021032A08D009E009F1070121F00702EB
:103AB000F2E802C1914605E01FFA8CFC042A01D10C
:103AC0000CF0FF0C4FF00008220728D5702806D014
:103AD000009B83F0100353EA0A0305D00EE0402256
:103AE0008DF80420012208E05CEA010206D03022B1
:103AF0008DF804208DF8050002229046009B83F08B
:103B0000080353EA0A030AD15CEA010201D1620701
:103B100005D530228DF804204FF001087F1E58286B
:103B200004D034A003900EA802900DE036A0F9E76F
:103B300053466046009AFDF77CF884460398825C01
:103B40000298401E029002705CEA0100F0D10298D7
:103B500006A9081A00F1200A600702D524F480346F
:103B600000E00127574502DDA7EB0A0000E0002036
:103B700000EB0A01009005984144401A0590E003CB
:103B800006D45B462146179A059800F0B3F9054420
:103B9000002706E001A85A46C05D179990476D1CA2
:103BA0007F1C4745F6DBE0030CD55B462146179AA0
:103BB000059800F09FF9054404E030205A46179913
:103BC00090476D1C0099481E00900029F5DC08E024
:103BD000029802995A460078491C02911799904719
:103BE0006D1CBAF10001AAF1010AF1DC65E10000E7
:103BF00009280100303132333435363738396162C3
:103C00006364656600000000303132333435363786
:103C100038394142434445460000000000F058F95D
:103C20000544761C307800287FF4ECAD19B02846A6
:103C3000BDE8F08F620700D4062709F1070222F0E1
:103C4000070CFCE80223E14603F000485FEA080C99
:103C500002D00FF2702C0DE05FEA045C02D50FF287
:103C6000682C07E05FEAC47C02D00FF2602C01E010
:103C7000AFF2700C4FF0FF3823F00043CDF850C086
:103C800065280CD006DC452809D046281DD04728D9
:103C90003DD13DE0662818D067287ED138E000216C
:103CA000112F01DB112000E0781CCDE9000106A9ED
:103CB0000EA8FFF7D5FCDDE90F010E9A0391002154
:103CC000009207F1010A04914DE04FF00040009787
:103CD000CDE9011006A90EA8FFF7C2FCDDE90F022D
:103CE00003920E9B11990022DDF80CA00093049220
:103CF00011B9791C00EB010AB7EB0A0004D4C0F13A
:103D0000FF3007F1010A0490AAEB0700019044E09C
:103D1000012F00DA01270021112F01DD112000E021
:103D20003846CDE9000106A90EA8FFF799FCDDE9A8
:103D30000F010E9A0391002104910092BA462107C7
:103D40000CD40399514500DA8A46BAF1010F05DD1A
:103D5000009AAAF10101515C302908D0B84202DA78
:103D600010F1040F06DA0121CDE9011015E0AAF1E6
:103D70000101E9E7002805DC049901440491AAEB5C
:103D8000000102E0411C514500DD8A460499401AB9
:103D9000401C01904FF000400290200704D401988D
:103DA000504501DBCDF8048000208DF84F000298CB
:103DB0000DF14F07B0F1004F25D02B200E90029847
:103DC0004FF0020800280CDA404202902D200E909D
:103DD00007E00A210298FCF716FF3031029007F83D
:103DE000011DB8F10001A8F10108F2DC02980028D9
:103DF000EFD1791E0E980870307800F0200040F066
:103E0000450007F8020D12A8C01B00F1070814981E
:103E1000007800B1012000EB0A01019801EBE0718C
:103E200005984144401A401E0590E00306D45B46C5
:103E30002146179A059800F05DF80544149800781B
:103E400018B15A46179990476D1CE00324D55B467C
:103E50002146179A059800F04DF805441CE0049897
:103E6000002807DBDDE90301884203DD0098405CA0
:103E7000179901E0179930205A469047049805F1A8
:103E80000105401C04900198401E019004D12E2091
:103E90005A46179990476D1CBAF10001AAF1010A20
:103EA000DDDC05E017F8010B5A46179990476D1CA9
:103EB000B8F10001A8F10108F4DC5B462146179A2D
:103EC0000598ABE62D0000002B000000200000004C
:103ED0002DE9F041044600251E461746880404D407
:103EE00005E039462020B0476D1C641EF9D52846F0
:103EF000BDE8F0812DE9F041044600251E469046BC
:103F0000C80301D5302700E02027880404D505E048
:103F100041463846B0476D1C641EF9D52846BDE8B9
:103F2000F0810A68531C0B6010707047ACB0FDF74D
:103F300003FDFFF7F0F9FEF7C1FD7148416941F05B
:103F4000010141614069002200F00100009011462A
:103F50000F20FDF74FFD0F20FDF73EFD002211461B
:103F60001020FDF747FD1020FDF736FDFEF7E8FDB8
:103F7000654D6448002428606448C5E901040C26A6
:103F8000EC60C5E90446AC612846EC61FEF7D9FA5D
:103F9000A5F1F0005E4901605E49C0E901144FF4EB
:103FA0008041C0E9034144618461C4610462FDF75A
:103FB000C9FBA5F14400584901604FF41651C0E90E
:103FC0000114C460C0E904468461C461FEF7B9FA13
:103FD0003622A5F19C0115A8FCF7B4F8A5F19C04C4
:103FE000E08EADF88A0004F12C00C1682391008AAC
:103FF000ADF89000E08FADF89200112204F140017D
:1040000025A8FCF79FF894F851008DF8A500606D85
:104010002A90542216A96846FCF794F84FF40072CF
:1040200051103E48159BFEF7E5FD262229460DA8B6
:10403000FCF788F8E88CADF85A0004F1AC0081690F
:104040001791808BADF86000E88DADF86200286BA9
:104050001990092204F1D0011AA8FCF773F895F819
:104060003D008DF8710095F83E008DF87200286CC7
:104070001D90342211A96846FCF764F80DF1340C48
:104080009CE80F0000F050F800F05AF8FEF7FCFF33
:104090002349D1E91001FEF7F1FE0120FEF752FF9E
:1040A0003420FEF76AFF2020FEF7BAFFFEF7B2FECB
:1040B000FEF78EFE04F5D47140F2EE22A1F5A87051
:1040C000FEF7FCFAC82204F1E0012846FEF7F6FAF2
:1040D0001E211448FEF7FCFF3220FDF725FA114897
:1040E00020212038FEF7F4FF3220FDF71DFA0D489D
:1040F00020213E38FEF7ECFF3220FDF715FAE7E706
:10410000001002400044004060010020400D030008
:1041100000540040A086010000380140000C01401E
:1041200000000020160A00200FB4442210B502A996
:104130000248FCF707F810BC5DF814FB180B0020D0
:1041400010B5A0B0F4A104A8FFF756FA04A8FCF734
:104150002FF882B20A2304A9FC48FEF755FC002080
:10416000FEF7AEFE01077AD5400701D5F8A100E0C1
:10417000FEA104A8FFF740FA04A8FCF719F882B2E0
:104180000A2304A9F148FEF73FFC0120FEF798FE40
:10419000C0F34014C0F30013C0F3C002C0F38001A9
:1041A0008DE81E0000F00102C0F34003F64904A8A8
:1041B000FFF722FA04A8FBF7FBFF82B20A2304A947
:1041C000E248FEF721FC0220FEF77AFEC0F340141D
:1041D000C0F30013C0F3C002C0F380018DE81E00DD
:1041E00000F00102C0F34003E84904A8FFF704FA15
:1041F00004A8FBF7DDFF82B20A2304A9D348FEF727
:1042000003FC0320FEF75CFE00F00302E0A104A81B
:10421000921CFFF7F1F904A8FBF7CAFF82B20A2348
:1042200004A9CA48FEF7F0FB0520FEF749FE00F09E
:104230007F02DEA104A8FFF7DFF904A8FBF7B8FFAF
:1042400082B20A2304A9C148FEF7DEFB0620FEF76E
:1042500037FE0446000704D5D9A103E0FFE7DEA13D
:1042600087E7E2A104A8FFF7C7F904A8FBF7A0FFBE
:1042700082B20A2304A9B548FEF7C6FB032010EA60
:10428000540006D0012806D0022806D0032806D004
:1042900009E0DCA104E0E0A102E0E4A100E0E8A183
:1042A00004A8FFF7A9F904A8FBF782FF82B20A234A
:1042B00004A9A648FEF7A8FB05221DA90A20FEF7BF
:1042C0001FFE9DF876009DF874209DF875108DE80E
:1042D00007009DF877309DF87820DEA104A8FFF74D
:1042E0008BF904A8FBF764FF82B20A2304A997485C
:1042F000FEF78AFB05221DA90B20FEF701FE9DF8A3
:1043000076009DF874209DF875108DE807009DF8E3
:1043100077309DF87820DBA104A8FFF76DF904A899
:10432000FBF746FF82B20A2304A98848FEF76CFB1C
:1043300001221DA90C20FEF7E3FD9DF87420DDA1EC
:1043400004A8FFF759F904A8FBF732FF82B20A2349
:1043500004A97E48FEF758FB01221DA90D20FEF797
:10436000CFFD9DF87420DDA104A8FFF745F904A84E
:10437000FBF71EFF82B20A2304A97448FEF744FB30
:1043800001221DA90E20FEF7BBFD9DF87420DDA1C2
:1043900004A8FFF731F904A8FBF70AFF82B20A2349
:1043A00004A96A48FEF730FB01221DA90F20FEF781
:1043B000A7FD9DF87420DDA104A8FFF71DF904A84E
:1043C000FBF7F6FE82B20A2304A96048FEF71CFB45
:1043D00005221DA91020FEF793FD9DF876009DF89B
:1043E00074209DF875108DE807009DF877309DF8D2
:1043F0007820D8A104A8FFF7FFF804A8FBF7D8FE9F
:1044000082B20A2304A95148FEF7FEFA1120FEF7F2
:1044100057FD00F03F02DAA104A8FFF7EDF804A869
:10442000FBF7C6FE82B20A2304A94848FEF7ECFA5D
:104430001220FEF745FD00F03F02D8A104A8FFF7C7
:10444000DBF804A8FBF7B4FE82B20A2304A93F48B4
:10445000FEF7DAFA1320FEF733FD00F03F02D6A193
:1044600004A8FFF7C9F804A8FBF7A2FE82B20A234A
:1044700004A93648FEF7C8FA1420FEF721FD00F023
:104480003F02D4A104A8FFF7B7F804A8FBF790FEF9
:1044900082B20A2304A92D48FEF7B6FA1520FEF7CA
:1044A0000FFD00F03F02D2A104A8FFF7A5F804A871
:1044B000FBF77EFE82B20A2304A92448FEF7A4FA81
:1044C0001620FEF7FDFC00F03F02D0A104A8FFF784
:1044D00093F804A8FBF76CFE82B20A2304A91B48D8
:1044E000FEF792FA1C20FEF7EBFCC0F34014C0F379
:1044F0000013C0F3C002C0F380018DE81E0000F07D
:104500000102C0F34003C84904A8FFF775F804A8E6
:10451000FBF74EFE82B289E10D0A2A2A2A2A2A2AAC
:104520002A2A2A2A2A2A2A2A2A2A2A2A2A2A2A2AEB
:104530002A2A2A2A2A2A2A2A2A2A2A2A2A2A2A2ADB
:104540002A2A2A2A2A2A2A2A0D0A0000180B0020C1
:104550004352433A0D0A0909456E61626C65642C49
:104560002032204279746573200D0A004352433A89
:104570000D0A0909456E61626C65642C2031204288
:10458000797465200D0A0000DC490008204A000803
:1045900053455455505F41573A0D0A090925642087
:1045A0006279746573200D0A0000000052465F4373
:1045B000483A0D0A09092564204348200D0A0000E5
:1045C0004461746120526174653A0D0A0909324DE3
:1045D000627073200D0A00004352433A0D0A090924
:1045E00044697361626C6564200D0A004461746102
:1045F00020526174653A0D0A0909314D62707320C9
:104600000D0A000052465F5057523A0D0A09092D13
:1046100031386442200D0A0052465F5057523A0D1D
:104620000A09092D31326442200D0A0052465F50BA
:1046300057523A0D0A09092D366442200D0A00002E
:1046400052465F5057523A0D0A0909306442200D14
:104650000A00000052585F50697065302041646460
:1046600072733A0D0A0909253032582C2530325818
:104670002C253032582C253032582C2530325820F9
:10468000200D0A0052585F50697065312041646402
:1046900072733A0D0A0909253032582C25303258E8
:1046A0002C253032582C253032582C2530325820C9
:1046B000200D0A0052585F506970653220416464D1
:1046C00072733A0D0A090978782C78782C78782C4E
:1046D00078782C2530325820200D0A0052585F502F
:1046E000697065332041646472733A0D0A09097870
:1046F000782C78782C78782C78782C2530325820C3
:10470000200D0A0052585F5069706534204164647E
:1047100072733A0D0A090978782C78782C78782CFD
:1047200078782C2530325820200D0A0052585F50DE
:10473000697065352041646472733A0D0A0909781D
:10474000782C78782C78782C78782C253032582072
:10475000200D0A0054582041646472733A0D0A090E
:1047600009253032582C253032582C253032582C1F
:10477000253032582C2530325820200D0A000000F8
:1047800052585F50575F50303A0D0A09092564208E
:104790006279746573200D0A0000000052585F5062
:1047A000575F50313A0D0A09092564206279746512
:1047B00073200D0A0000000052585F50575F5032BE
:1047C0003A0D0A09092564206279746573200D0A7F
:1047D0000000000052585F50575F50333A0D0A09ED
:1047E000092564206279746573200D0A00000000B9
:1047F00052585F50575F50343A0D0A09092564201A
:104800006279746573200D0A0000000052585F50F1
:10481000575F50353A0D0A0909256420627974659D
:1048200073200D0A000000006C4A00080A2304A946
:104830001C48FEF7E9F81D20FEF742FB044640073E
:1048400001D519A100E01EA104A8FEF7D5FE04A819
:10485000FBF7AEFC82B20A2304A91248FEF7D4F893
:10486000A00701D51CA100E022A104A8FEF7C4FE08
:1048700004A8FBF79DFC82B20A2304A90948FEF7AD
:10488000C3F8AFF26C3104A8FEF7B6FE04A8FBF73C
:104890008FFC82B20A2304A90248FEF7B5F820B0C3
:1048A00010BD0000180B0020454E5F44504C3A0DDF
:1048B0000A0909456E61626C6564200D0A000000FA
:1048C000454E5F44504C3A0D0A09094469736162D0
:1048D0006C6564200D0A0000454E5F41434B5F50FC
:1048E00041593A0D0A0909456E61626C6564200DF3
:1048F0000A000000454E5F41434B5F5041593A0D5D
:104900000A090944697361626C6564200D0A00003C
:1049100070B50546FCF759FA044601462846FBF7F0
:104920001BFF15F0004F4FF07F410ED0B0F13F4F0D
:1049300028BFB1EB400F0ED2B0F17C5F1DDDB1EBB3
:10494000400F1AD313E0044617E0B0F13F4F08D9E7
:10495000B1EB400F05D34FF07E512046FBF7FCFE34
:10496000F1E7B0F17C5F08DBB1EB400F05D34FF00E
:104970007E512046FBF79EFEE5E7284664F31E00C5
:1049800070BD0000000000000000010203040607E3
:1049900008090000000001020304DDDDDDDDDCBBF1
:1049A000BBDDDDDDDDDDDDDDDDDD98888888888847
:1049B00088887777777777888888855555566666AB
:1049C0006666666666666668888883333332222246
:1049D0002222222222222228888D0000454E414197
:1049E0003A0D0A090950303A0925640D0A0909509F
:1049F000313A0925640D0A090950323A0925640D36
:104A00000A090950333A0925640D0A090950343A54
:104A10000925640D0A090950353A0925640D0A0073
:104A2000454E5F5258414444523A0D0A09095030EC
:104A30003A0925640D0A090950313A0925640D0A1D
:104A4000090950323A0925640D0A090950333A0917
:104A500025640D0A090950343A0925640D0A09092B
:104A600050353A0925640D0A0000000044594E50A3
:104A7000445F706970653A0D0A090950303A09259A
:104A8000640D0A090950313A0925640D0A090950D3
:104A9000323A0925640D0A090950333A0925640D93
:104AA0000A090950343A0925640D0A090950353AB2
:104AB0000925640D0A000000D84A00080000002003
:104AC0007000000040360008484B000870000020CD
:104AD000F00E00005036000800000000000000004A
:104AE00000000000000000000000000000000000C6
:104AF00000000000000000000000000000000000B6
:104B000000000000000000000000000000000000A5
:104B10000000000000000000AA4433221100000041
:104B20000100000010000000000000000024F4005C
:104B30000000000000000000000000000000000075
:084B400000000000000000006D
:04000005080000ED02
:00000001FF
